:020000040800F2
:10000000C00D00209D010008BD3F00081D32000802
:10001000B93F000821050008F94800080000000069
:10002000000000000000000000000000E53F0008A4
:10003000E308000800000000BF3F0008E73F000899
:10004000FD480008C1010008C1010008C101000805
:10005000C1010008C1010008C1010008C101000878
:10006000C1010008C1010008C1010008C101000868
:10007000C1010008C1010008C1010008C101000858
:100080005907000869070008B1030008C10100080A
:10009000C1010008C1010008C1010008C101000838
:1000A00005400008C1010008C1010008C1010008A5
:1000B000C1010008C1010008C10100082132000887
:1000C000C1010008C1010008C1010008C13F0008CA
:1000D000C1010008E9480008C1010008C101000889
:1000E000C1010008C1010008C1010008C1010008E8
:1000F000C1010008C1010008C1010008C1010008D8
:10010000C1010008C1010008C1010008C1010008C7
:10011000C1010008C101000815400008C101000824
:10012000790700088907000899070008A90700084F
:10013000C1010008C1010008C1010008C101000897
:10014000C1010008C1010008C1010008C101000887
:10015000B9070008C1010008C9070008C10100086B
:10016000C1010008C1010008C1010008C101000867
:10017000C1010008C1010008C10100080000000021
:10018000C1010008C1010008DFF80CD000F0AAF896
:100190000048004745520008C00D0020094801688A
:1001A00041F4700101600848804708480047FEE7B5
:1001B000FEE7FEE7FEE7FEE7FEE7FEE7FEE7FEE717
:1001C000FEE7000088ED00E0F13F0008890100082B
:1001D0002DE9F05F0546002092469B46884606467C
:1001E000814640241BE0284641464746224600F00F
:1001F00069F853465A46C01A914110D31146184621
:10020000224600F050F82D1A67EB01084F462246AF
:100210000120002100F047F817EB00094E41201E95
:10022000A4F10104DFDC484631462A464346BDE8D6
:10023000F09F40EA01039B0703D009E008C9121FA1
:1002400008C0042AFAD203E011F8013B00F8013B90
:10025000521EF9D27047D2B201E000F8012B491EBC
:10026000FBD270470022F6E710B513460A46044653
:100270001946FFF7F0FF204610BD30B50B4601468A
:1002800000202022012409E021FA02F59D4205D335
:1002900003FA02F5491B04FA02F52844151EA2F1DF
:1002A0000102F1DC30BD202A04DB203A00FA02F121
:1002B000002070479140C2F1200320FA03F3194354
:1002C00090407047202A04DB203A21FA02F00021F6
:1002D000704721FA02F3D040C2F120029140084356
:1002E00019467047064C074D06E0E06840F00103F0
:1002F00094E8070098471034AC42F6D3FFF748FF64
:10030000B8560008D856000870B50546AC6B206C8E
:1003100000F0500050BB206C40F400702064206856
:10032000806800F04050E8B9207ED8B92068C06AE3
:1003300000F4700020B12068806800F4806088B903
:100340002068406820F0200021684860206C20F47C
:1003500080702064206C00F4805018B9206C40F04C
:1003600001002064204600F085FB0BE0206C00F0CB
:10037000100018B1204600F096FB03E0A06BC16CA2
:100380002846884770BD70B50546AC6B4020206498
:10039000606C40F004006064204600F084FB70BD97
:1003A00070B50446A56B284600F07CFB70BD0000CC
:1003B00010B5024800F078FB10BD000014050020C5
:1003C00055494A6822F440324A604A6843681A43F1
:1003D0004A600268526822F4807203685A600268B8
:1003E0005368026943EA022203685A60026852684D
:1003F00022F0407203685A600268526883681A43A8
:1004000003685A600268926822F4006203689A6086
:1004100002689268C3681A4303689A603F4B826A15
:100420009A4218D00268926822F0706203689A605B
:1004300002689268836A1A4303689A600268926845
:1004400022F0405203689A6002689268C36A1A43B5
:1004500003689A600BE00268926822F07062036899
:100460009A600268926822F0405203689A600268BB
:10047000926822F0020203689A6002689368027E22
:1004800043EA420203689A602022125CA2B1026829
:10049000526842F4006203685A600268526822F4AB
:1004A000604203685A6002685368426A521E43EA17
:1004B000423203685A6005E00268526822F4006222
:1004C00003685A600268D26A22F470020368DA6232
:1004D0000268D36A828B521E43EA02520368DA62D0
:1004E0000268926822F4007203689A600268936856
:1004F00090F8302043EA422203689A6002689268CA
:1005000022F4806203689A6002689368426943EA51
:10051000822203689A607047002301400100000FA7
:1005200000BFFEE7F0B599B003460C4600201790D7
:100530001890002100BF11E02F4A02EB8002927850
:10054000012A09D12C4A32F820202DF811204A1C0A
:10055000D1B22D2900DB05E0421CD0B2274A128817
:100560009042E9DB00BF292903DA4FF0FF3019B0D0
:10057000F0BD002023E0C51700EB5575ED1017AE58
:10058000755D6D062D0E0246C61700EB5676F61009
:1005900017AFBD55421C3DF81220322A0DDDC5179C
:1005A00000EB5575ED1017AE755D45F0010502467F
:1005B000C61700EB5676F610BD55421CD0B228285F
:1005C000D9DB9DF85C009DF85D2010449DF85E200D
:1005D00010449DF85F201044C0B29DF86020904206
:1005E00002D06FF00100C2E79DF85C0018709DF822
:1005F0005E0020700020BAE7D0070020280000200D
:1006000010B50021094802F0FDF8002008490870E3
:1006100008490880084908800849087004F0A6FFC6
:1006200000222021064801F051F810BD7807002073
:1006300026000020280000202A0000202C00002096
:100640000010024010B500210C4802F0DBF80B4806
:100650000068C06820F0010008490968C8600020EF
:10066000064909684862C01E0449096808614010CB
:1006700002490968086104F079FF10BD780700207D
:100680001CB500240E480078012817D1FFF7DAFFC7
:10069000694601A8FFF746FF00200949087009498B
:1006A00008809DF800309DF8042007A10B4804F055
:1006B0002DF9C4B22146094804F05CFE1CBD0000BF
:1006C000260000202800002054656D703A25642023
:1006D0002C2048756D693A25640D0A003809002000
:1006E00010B5FFF78DFF0321024803F0F1FD024929
:1006F000087010BDFD0600082D00002010B5012275
:100700002021124800F0E2FF04F00AFF04F0CAFEC4
:1007100000200F4909684862C01E0D490968086138
:1007200040100B49096808610021094801F0A6FF43
:1007300007480068C06840F0010005490968C860C2
:100740000448007803F0F6FD10BD000000100240E0
:10075000780700202D00002010B5024800F0C2FCF0
:1007600010BD00004402002010B5024800F0BAFCA1
:1007700010BD0000E401002010B5024800F0B2FCFA
:1007800010BD0000B404002010B5024800F0AAFC1F
:1007900010BD00005C05002010B5024800F0A2FC6E
:1007A00010BD00003001002010B5024800F09AFC96
:1007B00010BD0000D000002010B5024800F092FCEF
:1007C00010BD0000E802002010B5024800F08AFCCD
:1007D00010BD000048030020014608781038182397
:1007E000B0FBF3F20848805CC865032A05D90868A5
:1007F0006FF30900001D886503E008686FF30900C6
:100800008865886D70470000AE56000801460020DC
:100810008A6A8B69CBB932B1012A0DD0022A03D082
:10082000032A10D10EE000BFCB6A03F08073B3F14E
:10083000807F00D1012007E0CB6AB3F1C07F00D1F7
:10084000012001E000E000BF34E08B69B3F5005FF8
:100850001AD132B1012A07D0022A03D0032A11D1BA
:100860000AE000BF01200EE0CB6A03F08073B3F111
:10087000807F00D1012006E0CB6AB3F1C07F00D1B8
:10088000012000E000BF15E032B1012A05D0022AA4
:1008900004D0032A0CD103E000BF00BF012008E010
:1008A000CB6A03F08073B3F1807F00D1012000E0B8
:1008B00000BF00BF704730B50468246824F480246A
:1008C00005682C60046863608468402C04D1046867
:1008D000A2600468E16003E00468A1600468E2606B
:1008E00030BD70477047000038B5024600200090C8
:1008F00000BF92F83C00012801D1022038BD012040
:1009000082F83C0000BF0868092816D91068C06842
:100910000C780A3C04EB44050724AC40A04314685F
:10092000E0600C780A3C04EB44048868A04014683A
:10093000E46820431468E06013E0106800690C78F4
:1009400004EB44050724AC40A043146820610C78F4
:1009500004EB44048868A0401468246920431468A8
:1009600020614868072817D21068406B0C79641E14
:1009700004EB84051F24AC40A0431468606308881E
:1009800080B20C79641E04EB8404A0401468646B8C
:1009900020431468606331E048680D2817D210685E
:1009A000006B0C79E41F04EB84051F24AC40A043CA
:1009B00014682063088880B20C79E41F04EB840477
:1009C000A0401468246B20431468206316E010686C
:1009D000C06A0C790D3C04EB84051F24AC40A04395
:1009E0001468E062088880B20C790D3C04EB840442
:1009F000A0401468E46A20431468E062194B1A4C62
:100A00001068A04206D10868122803D1586840F443
:100A100080005860144C1068A0421CD1086810284F
:100A200002D00868112816D1586840F400005860B8
:100A3000086810280FD10D4800680D4CB0FBF4F089
:100A400000EB80004000009002E00098401E009003
:100A500000980028F9D100BF002082F83C0000BFB8
:100A600000BF4BE7002301400020014008000020A8
:100A700040420F0010B5044607492068884203D160
:100A800001200649087005E005492068884201D127
:100A900003F058FA10BD00000020014004000020BF
:100AA000002201407047704770B5044600250026BB
:100AB00020680068C0F3400520684068C0F3401615
:100AC00095B38EB3206C00F0100018B9206C40F480
:100AD000007020642068806800F04050E8B9207EF3
:100AE000D8B92068C06A00F4700020B1206880681E
:100AF00000F4806088B92068406820F020002168F8
:100B00004860206C20F480702064206C00F48050D9
:100B100018B9206C40F0010020642046FFF7AAFFBE
:100B20006FF012002168086020680068C0F380053B
:100B300020684068C0F3C016E5B3DEB3206C00F057
:100B4000100018B9206C40F40050206420688068C0
:100B500000F4401038BB2068806B00F4401020B1D6
:100B60002068806800F48060E8B92068406800F47C
:100B70008060C0B92068806800F0405098B9207E3D
:100B800088B92068406820F0800021684860206CA7
:100B900020F480502064206C00F4807018B9206C20
:100BA00040F0010020642046FFF79CFE6FF00C002F
:100BB000216808602068006800F00105206840682E
:100BC000C0F3801685B17EB12068006800F0010096
:100BD00050B1206C40F480302064204600F052F880
:100BE0006FF001002168086020680068C0F34015BC
:100BF00020684068C0F380667DB176B1606C40F0DB
:100C0000020060646FF02000216808602046FFF752
:100C10004AFF6FF020002168086070BD70B504467F
:100C200000250CB9012070BD1549A06A884200D08A
:100C300000BF206C30B9204600F026F80020606428
:100C400084F83C00206C00F0100088B9206C20F47F
:100C5000885040F0020020642046FFF7B1FB0020DE
:100C60006064206C20F0020040F00100206400E08D
:100C7000012500BF002084F83C0000BF2846D2E7D1
:100C80000100000F7047000010B586B004466749A8
:100C90002068884261D100BF00200090644800684D
:100CA00040F00100624908600846006800F0010059
:100CB000009000BF00BF00BF002000900846006801
:100CC00040F4800008600846006800F4800000904E
:100CD00000BF00BF2020019003200290002003905D
:100CE00001A9544800F0DEFB534854490860002035
:100CF00048600021514881604162032181620021E6
:100D0000C1624FF400518161C91001618910C16154
:100D1000002101634FF4006141610021C1604FF483
:100D20008031016200F0FEFA00BF44484449886304
:100D300008464249886300BF01221146122000F094
:100D400026FE122000F013FE00220121382000F0C0
:100D50001EFE382000F00BFE66E03A49206888420B
:100D600062D100BF002000903148006840F02000B0
:100D70002F4908600846006800F02000009000BF7E
:100D800000BF00BF002000900846006840F48000CB
:100D900008600846006800F48000009000BF00BFB3
:100DA00003200290802001900020039001A9264892
:100DB00000F078FB20481830244908604FF080602C
:100DC0004860002121488160416203218162002145
:100DD000C1624FF400618161491001618910C161F4
:100DE000002101634FF4006141610021C1604FF4B3
:100DF0008031016200F096FA00BF144814498863FC
:100E000008461249886300BF01221146122000F0F3
:100E1000BEFD122000F0ABFD00220121392000F0C0
:100E2000B6FD392000F0A3FD06B010BD0020014042
:100E3000303802400000024010640240B404002038
:100E40001405002000220140001402405C0500202F
:100E5000BC050020F8B504460D461646002000905B
:100E600000BF94F83C00012801D10220F8BD012008
:100E700084F83C0000BF2068806800F00100A0B941
:100E80002068806840F0010021688860554800684B
:100E90005549B0FBF1F000EB4000009002E00098F3
:100EA000401E009000980028F9D12068806800F466
:100EB0008070B0F5807F05D12068806820F4807054
:100EC000216888602068806800F0010000287ED0DA
:100ED000206C40F20161884340F4807020642068F7
:100EE000406800F4806028B1206C20F4005040F489
:100EF00080502064206C00F48050B0F5805F04D1F5
:100F0000606C20F00600606401E00020606400BFB7
:100F1000002084F83C0000BF344F3548A16BC86303
:100F20003448A16B08643448A16BC8646FF0220098
:100F3000216808602068406840F08060216848604F
:100F40002068806840F4807021688860226802F11F
:100F50004C0133462A46A06B00F05AFA786800F03C
:100F60001F0018BB25492068884213D024492068F7
:100F7000884204D1381D006800F01F0050B121499B
:100F8000206888422BD11948001D006800F01F001E
:100F9000102824D22068806800F04050F8B92068FA
:100FA000806840F080402168886018E0134920681C
:100FB000884214D12068806800F0405078B92068D9
:100FC000806840F080402168886008E0FFE7206C7E
:100FD00040F010002064606C40F00100606400206C
:100FE00044E700000800002040420F0000230140B9
:100FF00009030008A103000887030008002001403E
:10100000002101400022014070B50446A56D00F0AA
:1010100069FB064694F83500022808D080206065F8
:1010200000BF002084F8340000BF012070BD20689C
:10103000006820F01600216808602068406920F0F0
:10104000800021684861206C08B9A06C28B1206834
:10105000006820F00800216808602068006820F01F
:101060000100216808600FE000F03CFB801B0528B0
:101070000AD92020606500BF002084F8340000BF3A
:10108000032084F83500D1E72068006800F00100F3
:101090000028E9D194F85C103F208840A86000BF88
:1010A000002084F8340000BF012084F835000020BF
:1010B000BCE7014691F83500022803D0802048653E
:1010C00001207047052081F835000868006820F08D
:1010D00001000A6810600020F3E7014691F835002E
:1010E00070470000F8B50446002000908C48006866
:1010F0004FF41651B0FBF1F7A56D2E6894F85C1013
:1011000008208840304098B12068006800F0040052
:1011100070B12068006820F004002168086094F82D
:101120005C1008208840A860606D40F00100606598
:1011300094F85C1001208840304068B12068406914
:1011400000F0800040B194F85C1001208840A86055
:10115000606D40F00200606594F85C1004208840E7
:10116000304068B12068006800F0020040B194F897
:101170005C1004208840A860606D40F00400606549
:1011800094F85C1010208840304078B320680068E4
:1011900000F0080050B394F85C1010208840A8605C
:1011A0002068006800F4802080B12068006800F4A6
:1011B000002028B9206CC8B12046216C884715E072
:1011C000A06C98B12046A16C88470FE020680068A9
:1011D00000F4807028B92068006820F008002168B9
:1011E0000860206C10B12046216C884794F85C1090
:1011F000202088403040002865D02068006800F03A
:10120000100000285FD094F85C1020208840A8606F
:1012100094F83500052828D12068006820F01600D1
:10122000216808602068406920F0800021684861DA
:10123000206C08B9A06C28B12068006820F0080074
:101240002168086094F85C103F208840A86000BFC7
:10125000002084F8340000BF012084F83500206DA0
:1012600010B12046216D8847F8BD2068006800F461
:10127000802080B12068006800F4002028B9606CEC
:1012800010B12046616C88471DE0E06BD8B1204664
:10129000E16B884717E02068006800F4807068B947
:1012A0002068006820F010002168086000BF00205E
:1012B00084F8340000BF012084F83500E06B10B1E1
:1012C0002046E16B8847606D38B3606D00F0010027
:1012D000F0B1052084F835002068006820F0010096
:1012E0002168086000BF0098401C0090B84200D9F7
:1012F00005E02068006800F001000028F3D100BF7D
:1013000000BF002084F8340000BF012084F83500BD
:10131000E06C10B12046E16C884700BFA4E70000F4
:10132000080000202DE9F0410446002500F0DAF91C
:10133000074614B90120BDE8F081606A00B100BF22
:1013400000BF002084F8340000BF022084F835007C
:101350002068006820F00100216808600AE000F0C1
:10136000C1F9C01B052805D920206065032084F839
:101370003500E0E72068006800F001000028EED1A9
:101380002068056821480540D4E901010843E16867
:1013900008432169084361690843A1690843E16979
:1013A0000843216A08430543606A042803D1D4E94D
:1013B0000B0108430543206805602068456925F056
:1013C0000705606A0543606A04280DD1A06A0543D9
:1013D000E06A48B12046FFF719FA28B1402060655D
:1013E000012084F83500A6E7206845612046FFF714
:1013F000F3F9064694F85C103F208840B060002066
:101400006065012084F83500002094E73F8010F0EB
:101410002DE9F04704460D4616461F464FF00008DA
:10142000D4F8589000BF94F83400012802D102206B
:10143000BDE8F087012084F8340000BF94F835003F
:10144000012825D1022084F83500002060653B4644
:10145000324629462046FFF72EFA94F85C103F20CA
:101460008840C9F808002068006840F0160021682C
:101470000860206C28B12068006840F008002168EE
:1014800008602068006840F001002168086006E0FC
:1014900000BF002084F8340000BF4FF0020840462F
:1014A000C6E70000F8B502460B46002500240020E0
:1014B0000021DEE0012606FA01F51E6806EA0504B1
:1014C000AC4275D11E7906F00306012E04D01E79B8
:1014D00006F00306022E13D190684F000326BE408B
:1014E000B0434F00DE68BE40304390605068012634
:1014F0008E40B0431E79C6F300168E4030435060D4
:101500001E7906F00306032E09D0D0684F0003268B
:10151000BE40B0434F009E68BE403043D0601E794D
:1015200006F00306022E13D1CF0802F1200656F86A
:1015300027004E07F70E0F26BE40B0434F07FF0EA1
:101540001E69BE403043CF0802F1200646F827004E
:1015500010684F000326BE40B0431E7906F0030614
:101560004F00BE40304310605E6806F08056B6F112
:10157000805F7DD100BF00260096404E366846F45D
:1015800080463E4F3E603E46366806F480460096F2
:1015900000BF00BF3A4E8F0856F827008E07370F5E
:1015A0000F26BE40B043374EB24202D1002624E09F
:1015B0005EE0354EB24201D101261EE0334EB2420A
:1015C00001D1022619E0324EB24201D1032614E0C5
:1015D000304EB24201D104260FE02F4EB24201D16B
:1015E00005260AE02D4EB24201D1062605E02C4E1A
:1015F000B24201D1072600E008268F073F0FBE4008
:1016000030431F4E8F0846F82700264E3068A0430F
:101610005E6806F48036B6F5803F00D12043214E47
:101620003060361D3068A0435E6806F40036B6F5BB
:10163000003F00D120431B4E361D3060361D306800
:10164000A0435E6806F48016B6F5801F00D12043E3
:10165000144E08363060361D3068A0435E6806F4CC
:101660000016B6F5001F00D120430E4E0C36306038
:10167000491C1029FFF41EAFF8BD00004438024099
:101680000838014000000240000402400008024007
:10169000000C0240001002400014024000180240FA
:1016A000001C0240003C0140024613690B400BB194
:1016B000012000E00020704710B5426921EA0203D2
:1016C00002EA010443EA0443836110BD0AB1816167
:1016D00001E00B048361704701480068000C70470B
:1016E000002004E00148006870470000100000205E
:1016F000704770472DE9F04705464FF0000828680D
:101700004668D5F82C9095F83E7095F83DA0102FBE
:1017100001D0402F7FD12868D0F81880286844690C
:1017200004F0010060B9B9F52A0F02D0B9F12A4FCF
:1017300001D1012000E00020012801D1BDE8F0879F
:1017400004F0010048B1C6F3402030B1284601F052
:101750006FFD284602F0CAF9B4E0C4F3C00030B10E
:10176000C6F3402018B1284602F077F8AAE0C4F387
:10177000400030B1C6F3402018B1284602F082F88C
:10178000A0E0C8F3800028B32868406800F4006037
:10179000B0F5006FE0D0C4F3C01048B1C6F38020AC
:1017A00030B1C4F3800018B9284601F0EAFF89E09F
:1017B000C4F380000028CFD0C6F340200028CBD04F
:1017C000102F03D1284601F097FF7BE0284602F056
:1017D000DCF977E02868406800F40060B0F5006F3D
:1017E00070D0C4F3801050B1C6F3802038B1C4F378
:1017F000800020B9284601F00EFF63E00BE0C4F33F
:10180000800000285ED0C6F3402000285AD0284629
:1018100001F06EFE56E0286C10B12868446904E0BF
:101820002868D0F8188028684469C4F3400060B183
:10183000C6F3402048B1286C10B12868D0F8188051
:101840004146284602F05DFA3CE0C4F3001030B196
:10185000C6F3402018B1284602F086FA32E0BAF109
:10186000210F02D0BAF1290F16D1C4F3C01048B12C
:10187000C6F3802030B1C4F3800018B9284602F0C6
:101880001DFA1FE0C4F38000E0B1C6F34020C8B1E8
:10189000284602F006FA15E0C4F3801048B1C6F3FA
:1018A000802030B1C4F3800018B9284602F0D6F980
:1018B00008E0C4F3800028B1C6F3402010B12846E8
:1018C00002F0BFF900BF39E77047704770477047B3
:1018D00070477047704770470348006803490978AC
:1018E00008440149086070471000002018000020DB
:1018F00010B50A48006840F40070084908600846BE
:10190000006840F480600860052000F07FF80F2038
:1019100000F006F800F02AF8002010BD003C02405C
:1019200070B504460E4800784FF47A71B1FBF0F0C0
:101930000C490968B1FBF0F5284600F0B9FC08B184
:10194000012070BD102C07D200222146501E00F04D
:101950001EF80548046001E00120F2E70020F0E7EE
:1019600018000020080000201400002070470146E5
:101970000846002809DB00F01F0301229A404309B2
:101980009B0003F1E023C3F8002100BF70472DE95D
:10199000F05F80460D461646002702F0CBFF074653
:1019A00039462A46334601F00700C0F1070ABAF16A
:1019B000040F02D94FF0040A01E0C0F1070AD14632
:1019C00000F1040ABAF1070F02D24FF0000A01E059
:1019D000A0F1030AD4464FF0010A0AFA09FAAAF163
:1019E000010A0AEA020A0AFA0CFA4FF0010B0BFA92
:1019F0000CFBABF1010B0BEA030B4AEA0B0421468B
:101A0000404602F09FFFBDE8F09F000000BF00F0DD
:101A10000702064B19684FF6FF031940044B0B43AE
:101A200043EA0221014B196000BF70470CED00E052
:101A30000000FA0570B504460D460CB9012070BDD2
:101A40005848006800F00700A84209D255490D70B7
:101A50000846006800F00700A84201D00120EEE728
:101A6000207800F0020002281DD1207800F0040048
:101A7000042805D14C48006840F4E0504A49086009
:101A8000207800F00800082805D14748006840F495
:101A90006040454908604448006820F0F000A168B3
:101AA000084341490860207800F00100A8B360684D
:101AB000012807D13C4808380068C0F34040B8B955
:101AC0000120BCE76068022802D06068032807D1C3
:101AD000354808380068C0F3406048B90120AEE7D7
:101AE000314808380068C0F3400008B90120A6E773
:101AF0002D48006820F00300616808432A49086007
:101B0000FFF7F0FD064609E0FFF7ECFD801B41F210
:101B10008831884202D9032091E707E02248006813
:101B200000F00C006168B0EB810FEDD11D4800683A
:101B300000F00700A84209D91A490D70084600684C
:101B400000F00700A84201D0012078E7207800F0DB
:101B50000400042807D11448006820F4E050E1682C
:101B6000084311490860207800F00800082808D1CF
:101B70000D48006820F46040216940EAC1000A492C
:101B8000086000F03FF808490968C1F30311074AEB
:101B9000515CC8400649086006480068FFF7C0FE6F
:101BA00000204CE7003C02400838024096560008EE
:101BB0000800002014000020014800687047000061
:101BC0000800002000B5FFF7F7FF04490968C1F3DA
:101BD0008221034A515CC84000BD00000838024021
:101BE000A656000800B5FFF7E7FF04490968C1F3EE
:101BF0004231034A515CC84000BD00000838024031
:101C0000A65600082DE9F047002400250026A1462D
:101C10002548006800F00C0020B1042805D00828F1
:101C20003AD105E0DFF8849039E0DFF8849036E0BF
:101C30001D48001F006800F03F041B48001F00689B
:101C400000F4800078B11A481749091F0968C1F3E8
:101C50008811A0FB01700146224600233846FEF79A
:101C6000B7FA05460EE011480F49091F0968C1F38C
:101C70008811A0FB01700146224600233846FEF77A
:101C8000A7FA05460848001F0068C0F30140401C41
:101C90004600B5FBF6F902E0DFF8109000BF00BF88
:101CA0004846BDE8F0870000083802400024F400F0
:101CB00000127A00F8B504460CB90120F8BD20786E
:101CC00000F00100002874D0F948006800F00C0012
:101CD00004280DD0F648006800F00C00082813D145
:101CE000F348001F006800F48000B0F5800F0BD1AE
:101CF000EF4808380068C0F34040002859D06068B9
:101D0000002856D10120D9E700BF6068B0F5803FB8
:101D100008D1E7480838006840F48030E4490839C1
:101D200008601EE06068B0F5A02F0DD1E0480838CB
:101D3000006840F48020DE490839086008460068E1
:101D400040F4803008600CE0D9480838006820F47E
:101D50008030D749083908600846006820F48020A0
:101D6000086000BF606890B1FFF7BCFC054606E064
:101D7000FFF7B8FC401B642801D903209EE7CC483C
:101D800008380068C0F340400028F1D011E0FFF7A8
:101D9000A9FC054606E0FFF7A5FC401B642801D915
:101DA00003208BE7C24808380068C0F34040002891
:101DB000F1D1207800F0020002285FD1BC48006811
:101DC00000F00C0058B1BA48006800F00C00082878
:101DD0001CD1B748001F006800F48000B0B9B448B7
:101DE00008380068C0F3400020B1E068012801D045
:101DF000012063E7AE480838006820F0F800216948
:101E000040EAC100AA490839086037E0E06800B339
:101E10000120A8490860FFF765FC054606E0FFF7CA
:101E200061FC401B022801D9032047E7A04808387D
:101E30000068C0F340000028F1D09D4808380068D1
:101E400020F0F800216940EAC1009949083908608A
:101E500014E0002097490860FFF744FC054606E0BF
:101E6000FFF740FC401B022801D9032026E79048D9
:101E700008380068C0F340000028F1D1207800F055
:101E8000080008282CD16069A8B101208A4908609F
:101E9000FFF728FC054606E0FFF724FC401B02285C
:101EA00001D903200AE782486C300068C0F3400083
:101EB0000028F1D014E000207F490860FFF712FCF1
:101EC000054606E0FFF70EFC401B022801D903205F
:101ED000F4E677486C300068C0F340000028F1D188
:101EE000207800F00400042870D1002770483830B2
:101EF000006800F0805090B900BF002000906C484E
:101F00003830006840F08050694938310860084630
:101F1000006800F08050009000BF00BF01276748B4
:101F2000006800F48070B0B96448006840F48070C4
:101F300062490860FFF7D6FB054606E0FFF7D2FBD3
:101F4000401B022801D90320B8E65C48006800F471
:101F500080700028F2D000BFA068012808D1544842
:101F60006830006840F001005149683108601DE0A8
:101F7000A06805280DD14E486830006840F0040084
:101F80004B49683108600846006840F0010008606D
:101F90000CE047486830006820F00100444968318F
:101FA00008600846006820F00400086000BFA068D0
:101FB000A8B1FFF797FB054609E0FFF793FB401B2D
:101FC00041F28831884202D9032077E626E038487A
:101FD00068300068C0F340000028EED013E0FFF73F
:101FE00081FB054608E0FFF77DFB401B41F288318D
:101FF000884201D9032061E62D4868300068C0F3AB
:1020000040000028EFD1012F07D12948383000685F
:1020100020F0805026493831086000BFA0690028B0
:1020200045D02348006800F00C0008285DD0A06966
:10203000022845D100201F490866FFF753FB0546DB
:1020400006E0FFF74FFB401B022801D9032035E6CD
:10205000174808380068C0F340600028F1D1D4E97F
:1020600007010843616A40EA81110122A06AC2EBBC
:10207000500041EA00412C20005D41EA00600C491B
:10208000091F086001200B490866FFF72BFB054676
:1020900006E0FFF727FB401B022801D903200DE6CD
:1020A000034808380068C0F340600028F1D049E0D8
:1020B0000838024000004742800E4742007000404E
:1020C000002021490866FFF70DFB054606E0FFF7F3
:1020D00009FB401B022801D90320EFE51B480068DB
:1020E000C0F340600028F2D12CE0A069012800D1A3
:1020F000E4E51648001D0668A069012820D006F412
:102100008001E06981421BD106F03F01206A8142D3
:1021100016D147F6C0703040616AB0EB811F0FD115
:1021200006F440310122A06AC2EB5000B1EB004F2F
:1021300006D106F070612C20005DB1EB006F01D07C
:102140000120BBE50020B9E500004742003802400D
:1021500070470000F8B50446206846682068856826
:10216000C5F3801048B905F0010030B1C6F3801006
:1021700018B12046216C8847F8BDC5F3400030B146
:10218000C6F3C01018B12046616C8847F4E7C5F368
:10219000401030B9C5F3801018B9C5F300200028ED
:1021A0007CD0C6F3401000287DD0C5F38010F0B17C
:1021B00094F8510003280ED0606D40F00400606573
:1021C00000BF002000902068C068009020688068F0
:1021D000009000BF0BE000BF002000902068C068A6
:1021E000009020688068009000BF00BFC4E7C5F37E
:1021F000401088B1606D40F00100606500BF0020B4
:1022000000902068806800902068006820F04000FE
:102210002168086000BF00BFC5F3002058B1606DA1
:1022200040F00800606500BF0020009020688068D2
:10223000009000BF00BF606D78B32068406820F058
:10224000E00021684860012084F8510006F0020097
:10225000022802D006F0010008B32068406820F090
:10226000030021684860E06C50B11048E16C0865DB
:10227000E06CFEF71EFF18B1606D40F04000606535
:10228000A06C50B10948A16C0865A06CFEF711FF65
:1022900018B1606D40F04000606503E003E0204647
:1022A000FFF756FF68E700BF66E70000D13F000870
:1022B00070B504462546681EB0F1807F01D3012029
:1022C0000FE0681E4FF0E02148610F214FF0FF3012
:1022D00002F038FB00204FF0E02188610720086100
:1022E000002070BD7047704710B504460CB901203E
:1022F00010BD94F83D0028B9002084F83C00204629
:1023000000F025F8022084F83D00211D206801F02E
:1023100089FE012084F8460000BF84F83E000121B8
:102320003F200155402001554120015500BF00BF0D
:10233000012084F8420043200155442001554520E6
:10234000015500BF012084F83D000020D0E7704710
:10235000014691F83D00012801D00120704702207C
:1023600081F83D000868C06840F001000B68D86043
:102370001A4B086898421BD00868B0F1804F17D0FC
:10238000174B0868984213D0164B086898420FD034
:10239000154B086898420BD0144B0868984207D038
:1023A000134B0868984203D0124B086898420CD12E
:1023B0000868806800F00702062A0CD008680068E8
:1023C00040F001000B68186005E00868006840F004
:1023D00001000B6818600020C0E700000000014009
:1023E0000004004000080040000C004000040140D0
:1023F00000400140001800402DE9F041044600254E
:10240000002600272249206888423ED1207F0128EB
:102410003BD10021204600F083FB85B220211D48DE
:10242000FFF742F908B9012000E0002007461A48EA
:10243000007830B919480580012017490870BDE8B7
:10244000F08116480088281A86B21448058014487E
:1024500000885A280EDA13481149098820F82160AB
:102460000F4A128800EB820087700D480088401CDC
:102470000B4908800A4800885A2806DB00210A48D0
:1024800000F0C0F901200949087000BFD7E700003B
:1024900000400140001002402C0000202A000020D3
:1024A00028000020D0070020780700202600002008
:1024B0002DE9F04104460D46164600BF94F83C0055
:1024C000012802D10220BDE8F081012084F83C00FF
:1024D00000BF96B9EB68D5E90012206801F020FE34
:1024E0002068806920F00C0021688861206880697C
:1024F000A9680843216888613DE0042E13D1EB6888
:10250000D5E90012206801F053FE2068806920F4AC
:1025100040602168886120688069A96840EA0120DC
:102520002168886127E0082E12D1EB68D5E90012F6
:10253000206801F05AFE2068C06920F00C00216874
:10254000C8612068C069A96808432168C86112E0B1
:10255000EB68D5E90012206801F063FE2068C069CD
:1025600020F440602168C8612068C069A96840EA19
:1025700001202168C86100BF002084F83C0000BF32
:1025800000BFA0E710B504460CB9012010BD94F8B7
:102590003D0028B9002084F83C00204600F026F8D1
:1025A000022084F83D00211D206801F03BFD012040
:1025B00084F8460000BF84F83E0001213F20015509
:1025C000402001554120015500BF00BF012084F883
:1025D000420043200155442001554520015500BFCC
:1025E000012084F83D000020D0E7000010B586B03F
:1025F00004461F492068884238D100BF002000905F
:102600001C48006840F480301A4908600846006899
:1026100000F48030009000BF00BF00BF0020009099
:1026200014481438006840F010001249143908604A
:102630000846006800F01000009000BF00BF0320B3
:10264000059002200290202001900120039002209A
:10265000049001A90848FEF725FF00220121182057
:10266000FFF795F91820FFF782F900BF06B010BDFB
:102670000040014044380240001002402DE9F04182
:1026800004460D4615B994F83E000BE0042D02D126
:102690003F20005D06E0082D02D14020005D01E0F2
:1026A0004120005D074615B994F842000BE0042D67
:1026B00002D14320005D06E0082D02D14420005DD8
:1026C00001E04520005D8046012F02D1B8F1010FE5
:1026D00002D00120BDE8F0811DB9022084F83E003F
:1026E0000EE0042D03D102213F20015508E0082D02
:1026F00003D102214020015502E002214120015571
:102700001DB9022084F842000EE0042D03D10221FD
:102710004320015508E0082D03D102214420015532
:1027200002E002214520015535B1042D0BD0082DC2
:1027300010D00C2D1CD114E02068C06840F00200BD
:102740002168C86015E02068C06840F00400216876
:10275000C8600EE02068C06840F008002168C860CA
:1027600007E02068C06840F010002168C86000E001
:1027700000BF00BF01222946206801F0BFFC1A49B2
:10278000206888421BD02068B0F1804F17D01749CD
:102790002068884213D01649206888420FD0154916
:1027A000206888420BD014492068884207D013491A
:1027B0002068884203D01249206888420CD12068E2
:1027C000806800F00706062E0CD02068006840F0F4
:1027D00001002168086005E02068006840F0010001
:1027E00021680860002075E70000014000040040F7
:1027F00000080040000C004000040140004001407F
:102800000018004030B504460D4635B1042D0BD0FC
:10281000082D10D00C2D1CD114E02068C06820F0C9
:1028200002002168C86015E02068C06820F004003C
:102830002168C8600EE02068C06820F008002168A8
:10284000C86007E02068C06820F010002168C860F8
:1028500000E000BF00BF00222946206801F04EFCC6
:1028600000BF2068006A41F21111084050B9206889
:10287000006A8910084028B92068006820F001002B
:102880002168086000BF1DB9012084F83E000EE0F9
:10289000042D03D101213F20015508E0082D03D16B
:1028A00001214020015502E00121412001551DB9BF
:1028B000012084F842000EE0042D03D101214320C1
:1028C000015508E0082D03D101214420015502E003
:1028D000012145200155002030BD10B50446206877
:1028E0000069C0F34000D8B12068C068C0F3400060
:1028F000B0B16FF0020021680861012020772068E4
:10290000806900F0030018B12046FFF775FD05E06F
:10291000204600F0ADF8204600F0ABF8002020770C
:1029200020680069C0F38000D8B12068C068C0F397
:102930008000B0B16FF004002168086102202077A8
:102940002068806900F4407018B12046FFF754FDFC
:1029500005E0204600F08CF8204600F08AF80020C0
:10296000207720680069C0F3C000D8B12068C06833
:10297000C0F3C000B0B16FF0080021680861042006
:1029800020772068C06900F0030018B12046FFF7E7
:1029900033FD05E0204600F06BF8204600F069F8B2
:1029A0000020207720680069C0F30010D8B12068AB
:1029B000C068C0F30010B0B16FF01000216808616A
:1029C000082020772068C06900F4407018B12046C4
:1029D000FFF712FD05E0204600F04AF8204600F01F
:1029E00048F8002020772068006900F0010058B105
:1029F0002068C06800F0010030B16FF0010021686C
:102A00000861204600F036F820680069C0F3C01065
:102A100058B12068C068C0F3C01030B16FF08000BA
:102A2000216808612046FFF75DFC20680069C0F35B
:102A3000801058B12068C068C0F3801030B16FF0CA
:102A4000400021680861204600F083F82068006992
:102A5000C0F3401058B12068C068C0F3401030B1D6
:102A60006FF02000216808612046FFF73CFC10BD94
:102A70007047704770B505462549286888423BD1A4
:102A8000002436E004EB4400224901EB8000007A88
:102A900000B92CE004EB44001E4901EB80004088A3
:102AA000401C04EB44011B4A02EB8101488004EB0B
:102AB0004400114601EB8000408804EB440132F8E9
:102AC0002110884212DB002004EB440102EB81015B
:102AD000488004EB4400114601EB8000406828B1B7
:102AE00004EB440102EB81014868804700BF601C91
:102AF000C4B20A2CC6DB09E007492868884205D120
:102B00000648007810B901200449087070BD000023
:102B10000010004000070020004001402600002077
:102B20000246002031B1042907D0082908D00C2919
:102B30000CD108E01368586B09E01368986B06E045
:102B40001368D86B03E01368186C00E000BF00BF87
:102B500070477047F8B504460E46174694F83E0095
:102B600020282ED106B10FB90120F8BD00BF94F87E
:102B70003C00012801D10220F7E7012084F83C0045
:102B800000BF20633A463146204601F031FE05463B
:102B9000ADB9206B012811D100BF00200090206842
:102BA0000068009020684068009000BF00BF206867
:102BB000C06840F010002168C86000E00125284688
:102BC000D3E70220D1E7000070B505460C460C495A
:102BD0002868884213D122460A490B4802F01EFB9E
:102BE000802208490948FFF7B5FF0848806B006854
:102BF000006820F008000549896B0968086070BD0D
:102C00000010014034040020A8030020A40200208A
:102C1000704700002DE9F84F0446206805682068D9
:102C2000C668206847694FF00009CA4605F00F09D9
:102C3000B9F1000F0AD105F0200038B106F02000EC
:102C400020B1204601F05FFCBDE8F88FB9F1000F1C
:102C500072D007F0010018B906F4907000286BD00C
:102C600005F0010030B106F4807018B1206C40F01E
:102C70000100206405F0040030B107F0010018B134
:102C8000206C40F00200206405F0020030B107F033
:102C9000010018B1206C40F00400206405F0080029
:102CA00048B106F0200010B907F0010018B1206CFF
:102CB00040F008002064206C70B305F0200028B1BB
:102CC00006F0200010B1204601F01DFC206840698C
:102CD000C0F3801A206C00F0080010B9BAF1000FA0
:102CE00023D0204601F0DAFB2068406900F0400064
:102CF000402816D12068406920F0400021684861D2
:102D0000A06B50B15648A16B0865A06BFEF7D1F9D6
:102D100010B1A06B016D88470CE02046FFF778FFEB
:102D200008E02046FFF774FF04E02046FFF770FF3D
:102D30000020206488E7FFE7206B012879D105F0A7
:102D40001000002875D006F01000002871D000BFD8
:102D50000020009020680068009020684068009083
:102D600000BF00BF2068406900F04000402839D112
:102D7000A06B006840681FFA80F8B8F1000F30D0EF
:102D8000A08D40452DDDA4F82E80A06BC069B0F564
:102D9000807F1FD02068C06820F480702168C860E0
:102DA0002068406920F0010021684861206840697E
:102DB00020F0400021684861202084F83E00002077
:102DC00020632068C06820F010002168C860A06BF4
:102DD000FEF71AF9A08DE28D801A81B22046FFF726
:102DE000F3FE31E7A08DE18D401A1FFA80F8E08DE7
:102DF000E8B1B8F1000F1AD02068C06820F49070D4
:102E00002168C8602068406920F00100216848619D
:102E1000202084F83E00002020632068C06820F055
:102E200010002168C86041462046FFF7CDFE0BE741
:102E3000FFE705F0800030B106F0800018B12046B1
:102E400001F022FD00E705F0400030B106F040003F
:102E500018B1204601F03DFBF6E600BFF4E60000A5
:102E60006D43000810B504460CB9012010BDA069DF
:102E700000B100E000BF94F83D0028B9002084F8BC
:102E80003C00204600F028F8242084F83D0020680B
:102E9000C06820F400502168C860204601F092FB11
:102EA0002068006920F4904021680861206840692A
:102EB00020F02A00216848612068C06840F4005072
:102EC0002168C86000202064202084F83D0084F838
:102ED0003E000020CAE7000010B586B004465949FC
:102EE000206888427ED100BF0020009056480068CC
:102EF00040F00100544908600846006800F00100F5
:102F0000009000BF00BF00BF002000904E4814306A
:102F1000006840F010004C49143108600846006811
:102F200000F01000009000BF00BF00BF0020009024
:102F30004548006840F4800043490860084600683E
:102F400000F48000009000BF00BF07200590022021
:102F5000029000020190012003900220049001A938
:102F60003A48FEF79FFA4FF48060019001A9374874
:102F7000FEF798FA3648374908604FF0006048601D
:102F80004021344881600021416203218162002197
:102F9000C16281614FF4806101610021C1610163FF
:102FA0004161C1604FF480310162FEF7BBF92848EE
:102FB0003038294908604FF00060486000212648F9
:102FC00081604162032181620021C16281614FF40D
:102FD000806101610021C16101634161C1604FF401
:102FE000803100E02BE00162FEF79CF900BF194838
:102FF0001A49486308461749886300BF00BF16484E
:103000001649886308461449886300BF01220021DD
:103010002520FEF7BCFC2520FEF7A9FC002201219B
:103020004420FEF7B4FC4420FEF7A1FC0122114627
:103030004620FEF7ACFC4620FEF799FC00BF06B028
:1030400010BD000000100140303802400000024076
:10305000B864024048030020E8020020A4020020D7
:1030600070477047F7B50446154694F83D00202890
:103070003DD1019800B10DB90120FEBD00BF94F80B
:103080003C00012801D10220F7E7012084F83C0030
:1030900000BF01982062A584E584002020642120DF
:1030A00084F83D001348616BC8631348616B086482
:1030B0001248616BC8640020616B086501AE23682B
:1030C0001A1D31682B46606BFEF7A2F96FF04000C5
:1030D0002168086000BF002084F83C0000BF206821
:1030E000406940F08000216848610020C5E7022067
:1030F000C3E70000594400088F44000881430008DA
:10310000034A0168914202D10121024A11707047BD
:1031100000100140060000207047000010B5044672
:103120001049206888421CD10F4800F071F80F4800
:103130000088401C0D490880084600880F2810DBD5
:1031400000BF4FF400710A48FEF7B6FA00BF00BF97
:103150004FF480610648FEF7AFFA00BF0020034934
:10316000088010BD002C0040840600201E000020B6
:103170000014024010B5044620684068C0F34020A7
:1031800058B12068806800F0010030B16FF0010094
:10319000216888602046FFF7C1FF10BD10B50446C6
:1031A0000CB9012010BD204600F00EF8E06840F098
:1031B000800021680860616820690843A1680843AD
:1031C000216848600020EDE738B504460E492068C4
:1031D000884217D100BF002000900C48006840F4DE
:1031E00000600A4908600846006800F4006000902A
:1031F00000BF00BF012200210846FEF7C8FB0020E7
:10320000FEF7B5FB38BD0000002C004040380240FE
:1032100001460A68C86810600020704700BFFEE7DA
:1032200010B50248FEF766FA10BD000090010020BC
:10323000C16AB1F52A0F02D10121C16205E0C16A5C
:10324000B1F12A4F01D10821C1627047F8B5054696
:1032500000200090AC6B94F83D603948006819215B
:10326000B0FBF1F04FF47A71B0FBF1F0C0EBC000AD
:1032700000EB8000009000BF009820B9206C40F067
:103280002000206409E00098401E0090206800683B
:1032900000F40070B0F5007FEED000BF606B10B19D
:1032A0000020616BC863A06B10B10020A16BC863E4
:1032B0002068006820F48060216808600020608534
:1032C000606B10B10020616B0865A06B10B100202D
:1032D000A16B08652068006820F001002168086083
:1032E00094F83D0060280AD1202084F83D00002099
:1032F00084F83E0020642046FEF7FAF91EE006F04E
:103300002800282811D12068006840F001002168B9
:1033100008602068006840F4806021680860002030
:103320002063282084F83D0005E0202084F83D003B
:10333000002084F83E002046FEF7C6FAF8BD0000E3
:10334000080000202DE9F041044694F83D6094F80F
:103350003E70102F01D0402F07D1222E05D12068BA
:10336000006820F400602168086006F02800282822
:1033700005D100202063282084F83D0010E020685B
:10338000406800F40060B0F5006F07D0602E05D0F3
:10339000202084F83D00002084F83E0000202063B7
:1033A0002068406800F40060B0F5006F40D12068EC
:1033B000406820F4006021684860606B90F8350038
:1033C000012814D04848616B0865606BFDF771FEF9
:1033D00000285BD02068006820F0010021680860A8
:1033E000202084F83D00606B016D88474EE03E4828
:1033F000A16B0865A06BFDF75CFE002846D0206835
:103400004069C0F3801030B120680069616A0870BB
:10341000606A401C60622068006820F0010021683A
:103420000860202084F83D00A06B016D88472DE0E6
:1034300094F83D0060281AD1202084F83D00002037
:10344000206420684069C0F3801030B120680069B2
:10345000616A0870606A401C60622068006820F041
:103460000100216808602046FEF742F90EE020685E
:103470004069C0F3801030B120680069616A08704B
:10348000606A401C60622046FEF71EFA256C05F05B
:10349000010058B905F00200022807D005F0040029
:1034A000042803D005F00800082805D120684068EA
:1034B00020F4E0602168486094F83D60206C00F0E2
:1034C000040004280ED1282E0CD10848E062002008
:1034D0002063202084F83D00002084F83E00204630
:1034E000FEF7F3F9BDE8F0814D3200080000FFFF60
:1034F00070B50446E56A608D042810D120684068E4
:1035000020F480602168486020680069616A087062
:10351000606A401C6062608D401E60857AE0608D4C
:1035200003281AD12068406820F480602168486030
:10353000042D07D0022D05D02068006820F480609B
:103540002168086020680069616A0870606A401C30
:103550006062608D401E60855CE0608D02284FD106
:10356000012D01D0102D06D12068006820F4806064
:103570002168086012E0042D01D0022D06D12068D8
:10358000006840F480602168086007E0102D05D0D5
:103590002068006840F400702168086020680069B5
:1035A000616A0870606A401C6062608D401E6085C0
:1035B00020680069616A0870606A401C6062608D02
:1035C000401E60852068406820F440702168486093
:1035D000202084F83D0094F83E00402807D10020C8
:1035E00084F83E0020632046FEF772F912E00020C6
:1035F00084F83E00122020632046FEF767F909E0B8
:1036000020680069616A0870606A401C6062608DB1
:10361000401E608570BD70B5044694F83D002228B8
:1036200069D1658D032D13D920680069616A08701E
:10363000606A401C6062608D401E6085608D03285A
:1036400058D12068406820F480602168486051E0CB
:10365000E06A02284ED0012D01D0002D4AD120462B
:1036600000F048FC68BB2068006820F48060216896
:1036700008602068406820F4E060216848602068A5
:103680000069616A0870606A401C6062608D401E5B
:103690006085202084F83D0094F83E00402807D142
:1036A000002084F83E0020632046FEF711F921E057
:1036B000002084F83E00122020632046FEF706F921
:1036C00018E02068406820F4E060216848602068C5
:1036D0000069616A0870606A401C6062608D401E0B
:1036E0006085202084F83D00002084F83E002046BC
:1036F000FEF7EAF800BF70BD70B50446E56A94F8BD
:103700003D0021283CD1608D50B1606A007821686D
:103710000861606A401C6062608D401E60852FE019
:10372000082D16D0202D14D015F5803F11D020681B
:10373000406820F4E0602168486011202063002088
:1037400084F83E00202084F83D002046FEF7BFF8B4
:1037500016E02068406820F4E06021684860206836
:10376000006840F400702168086000202063202079
:1037700084F83D00002084F83E002046FEF7A7F8BC
:1037800070BD2DE9F041044694F83D5094F83E7028
:10379000E66A208DB0BB212D3CD1082E16D0202EFC
:1037A00014D016F5803F11D02068406820F4E06006
:1037B0002168486011202063002084F83E0020200A
:1037C00084F83D002046FEF782F844E02068406817
:1037D00020F4E060216848602068006840F40070D0
:1037E0002168086000202063202084F83D0094F8C0
:1037F0003E00402807D1002084F83E002046FEF716
:1038000068F828E006E0002084F83E002046FEF735
:103810005EF820E0212D03D0402F1CD1222D1AD19B
:10382000608D30B92068406820F48060216848606D
:1038300011E094F83E00402803D1204600F0A5F99D
:1038400009E0606A007821680861606A401C606273
:10385000608D401E6085BDE8F081416CC9B2026890
:103860001161416B11B1416BC96B21B9816B41B1E0
:10387000816BC96B29B10168496841F40061026834
:103880005160704738B590F83E20C16A036B90F8DC
:103890003D40222C73D1046D64B9402A0AD100BF87
:1038A000002400940468646900940468A469009486
:1038B00000BF1AE1046DC4B90469B4F5404F14D1D6
:1038C00000BF002400940468646900940468A4693B
:1038D000009400BF00BF0468246844F48074056845
:1038E0002C60046D641C0465FFE0448D8CB900BF3E
:1038F000002400940468646900940468A469009436
:1039000000BF00BF0468246844F4007405682C609C
:10391000DDE0448D012C72D111F5803F30D1046877
:10392000246824F4806405682C600468646804F4E6
:103930000064B4F5006F10D10468246824F4806436
:1039400005682C6000BF002400940468646900943A
:103950000468A469009400BFB9E000BF002400948B
:103960000468646900940468A469009400BF00BFFF
:103970000468246844F4007405682C60A7E0A9E09A
:10398000082923D0202921D0122B01D101291DD1B2
:1039900004290AD0022908D0102906D00468246816
:1039A00024F4806405682C6005E00468246844F40D
:1039B000806405682C6000BF00240094046864697A
:1039C00000940468A469009400BF80E0046824683F
:1039D00024F4806405682C6000BF0024009404680F
:1039E000646900940468A469009400BF00BF04687F
:1039F000246844F4007405682C6068E0FFE7448D97
:103A0000022C3BD1042910D002290ED010290CD051
:103A10000468246824F4806405682C6004682468C1
:103A200044F4006405682C6005E00468246844F4EC
:103A3000806405682C600468646804F40064B4F56C
:103A4000006F10D111F5803F07D0012905D008295A
:103A500003D0102901D0202905D10468646844F4FA
:103A6000805405686C6000BF002400940468646999
:103A700000940468A469009400BF28E004682468E6
:103A800044F4806405682C600468646804F400648D
:103A9000B4F5006F10D111F5803F07D0012905D092
:103AA000082903D0102901D0202905D104686468B1
:103AB00044F4805405686C6000BF002400940468DE
:103AC000646900940468A469009400BF00BF0024E6
:103AD00004650AE000BF002400940468646900944F
:103AE0000468A469009400BF00BF38BD90F83E1080
:103AF00040290ED1016D29B9416C01F0FE01026827
:103B0000116141E0416CC9B241F0010102681161EB
:103B10003AE00169B1F5804F20D190F83D1021299C
:103B200005D1416C01F0FE010268116105E0416CB4
:103B3000C9B241F0010102681161416B11B1416BE1
:103B4000C96B21B9816BF9B1816BC96BE1B10168B6
:103B5000496841F400610268516015E0016D41B9A6
:103B6000416C01F44071F02242EAE11102681161F6
:103B70000AE0016D012907D1416C01F44071F12285
:103B800042EAE11102681161704770B5044694F889
:103B90003D50206D98B9E06C012807D1A06CC0B2EF
:103BA00021680861206D801C206549E0A06CC0F38D
:103BB000072021680861206D401C206540E0206DD1
:103BC000012807D1A06CC0B221680861206D401C9B
:103BD000206535E0206D022832D1222D06D12068E3
:103BE000006840F480702168086029E0608D60B151
:103BF000212D0AD1606A007821680861606A401C42
:103C00006062608D401E60851AE0608DC0B9212D14
:103C100016D12068406820F4E06021684860206880
:103C2000006840F4007021680860002020632020B4
:103C300084F83D00002084F83E002046FDF749FE50
:103C400070BD418D49B101680969426A1170416ACC
:103C5000491C4162418D491E4185704770B504463B
:103C600094F83D50608DD8B120680069616A087091
:103C7000606A401C6062608D401E6085608D78B90E
:103C80002A2D0DD12068406820F4806021684860AA
:103C900022202063282084F83D002046FDF71AFEEC
:103CA00070BD418D49B1416A097802681161416A6C
:103CB000491C4162418D491E4185704770B50446DB
:103CC00094F83D50608DD8B1606A00782168086131
:103CD000606A401C6062608D401E6085608D78B9AE
:103CE000292D0DD12068406820F48060216848604B
:103CF00021202063282084F83D002046FDF7EBFDBD
:103D000070BD2DE9F04104460D46002794F83D00B2
:103D100000F0280028281CD12068406820F480602A
:103D200021684860C5F3800000B90127C5F3C010C1
:103D300010B9A08986B201E0208B86B200BF0020B6
:103D400084F83C0000BF324639462046FDF7D1FCDE
:103D500008E06FF002002168486100BF002084F88D
:103D60003C0000BFBDE8F08138B5044694F83D50F2
:103D70002068406820F4E0602168486000BF0020AF
:103D800000902068406900902068006840F00100C1
:103D90002168086000BF00BF2068006820F48060D0
:103DA000216808602068406800F40060B0F5006F8A
:103DB00042D1222D01D02A2D1FD1A06B006840686E
:103DC0006085608D18B1206C40F00400206420688C
:103DD000406820F4006021684860A06BFDF77DF921
:103DE000012829D04148A16B0865A06BFDF761F956
:103DF00010B3A06B016D88471EE0606B00684068DF
:103E00006085608D18B1206C40F00400206420684B
:103E1000406820F4006021684860606BFDF75DF940
:103E2000012809D03148616B0865606BFDF741F9E5
:103E300010B1606B016D8847608D18B320684069D0
:103E4000C0F3800048B120680069616A0870606A48
:103E5000401C6062608D401E608520684069C0F330
:103E6000801048B120680069616A0870606A401C6F
:103E70006062608D401E6085608D18B1206C40F0DE
:103E800004002064206C18B12046FFF75BFA2BE099
:103E90002A2D07D100202063282084F83D002046E9
:103EA000FDF718FD94F83D0028280DD11048E06278
:103EB00000202063202084F83D00002084F83E008C
:103EC0002046FDF702FD0FE0206B222801D0222DB5
:103ED0000AD100202063202084F83D00002084F8CF
:103EE0003E002046FDF7F6FC38BD00004D320008CC
:103EF0000000FFFF08B50146002000901048006850
:103F00001922B0FBF2F04FF47A72B0FBF2F000EB42
:103F10008000009000BF0098401E0090009828B9D3
:103F2000086C40F020000864012008BD08680068A3
:103F300000F40070B0F5007FEDD00020F5E7000040
:103F4000080000200120014908707047240000206B
:103F500010B500240948007801280DD1084809A1AE
:103F600002680B4800F0D2FCC4B22146084801F0B8
:103F700001FA00200149087010BD00002400002053
:103F8000200000204C696768743A25640D0A00001F
:103F90009806002000200149087070472400002086
:103FA00010B5012202490348FCF754FF10BD000080
:103FB00020000020BC05002000BFFEE770477047CE
:103FC00010B50248FEF7C6F810BD000078000020CA
:103FD00070B50546AC6B0020E087E0862046FEF712
:103FE000B7F870BD704710B5FDF776FC10BD000046
:103FF0000348006840F47000014908607047000001
:1040000088ED00E010B50248FEF767FC10BD000027
:104010007807002010B50248FEF75FFC10BD0000D5
:10402000B806002010B50268294B98420ED0B0F1B6
:10403000804F0BD0274B984208D0274B984205D091
:10404000264B984202D0264B984203D122F07002B0
:104050004B681A431E4B984220D0B0F1804F1DD0C0
:104060001C4B98421AD01C4B984217D01B4B9842BD
:1040700014D01B4B984211D01A4B98420ED01A4BB9
:1040800098420BD0194B984208D0194B984205D052
:10409000184B984202D0184B984203D122F4407238
:1040A000CB681A4322F080034C6943EA04020260A1
:1040B0008B68C3620B688362054B984202D0084B41
:1040C000984201D10B6903630123436110BD0000D5
:1040D000000001400004004000080040000C0040C7
:1040E00000040140004001400044014000480140FC
:1040F00000180040001C00400020004030B501F0D6
:104100001F05012404FA05F3046A9C430462046A4F
:1041100001F01F0502FA05F52C43046230BD0000D2
:1041200070B50C461546066A26F0010606628169DE
:10413000026A184EB04214D0B0F1804F11D0164E22
:10414000B0420ED0154EB0420BD0154EB04208D042
:10415000144EB04205D0144EB04202D0134EB042BD
:1041600001D1012600E000261EB121F00301294300
:1041700001E041F0010121F0F001F02606EA03160A
:10418000314322F00A0204F00A06324381610262DE
:1041900070BD000000000140000400400008004025
:1041A000000C0040000401400040014000180040A5
:1041B00070B50C461546066A26F01006066281693F
:1041C000026A21F4407141EA052121F470414FF463
:1041D000704606EA0336314322F0A002A02606EA22
:1041E000041632438161026270BD70B50C461546FB
:1041F000066A26F480760662C169026A21F003012C
:10420000294321F0F001F02606EA0316314322F497
:1042100020624FF4206606EA04263243C16102623E
:1042200070BD70B50C461546066A26F480560662C7
:10423000C169026A21F4407141EA052121F470410B
:104240004FF4704606EA0336314322F420424FF41D
:10425000204606EA04363243C161026270BD0000A6
:1042600008B500BF002000901648006840F010001C
:10427000144908600846006800F01000009000BF74
:1042800000BF1148114908608021104881618900F0
:104290000161002181606321C16042F2CF000B49BE
:1042A0004860002109484161FEF71EF80022012103
:1042B0003620FDF76CFB3620FDF759FB0348FEF76F
:1042C00047F808BD4038024000100040B806002002
:1042D00030B502460B4602B10BB9002030BD0021BB
:1042E00021E001EB4100124C04EB8000007AC0B9E0
:1042F00001EB410024F82030002001EB41040C4D7B
:1043000005EB8404608001EB41002C4604EB800047
:104310004260012001EB410405EB84042072084651
:10432000DCE7481CC1B20A29DBDB0020D6E700002D
:10433000000700200A2800DB7047002100EB400244
:10434000094B03EB8202117200EB400203EB820285
:10435000516000EB400203EB8202518000EB40020F
:1043600023F8221000BFE7E70007002070B50546DC
:10437000AC6B0020E085E0842046FEF749FC70BD70
:1043800070B506460025B46B20684069C0F3C015BF
:1043900094F83D00212805D125B10020E084204675
:1043A00000F0A7F820684069C0F3801594F83E003B
:1043B000222805D125B10020E085204600F06EF8C6
:1043C000206C40F0100020642046FEF721FC70BDF8
:1043D00070B50546AC6B2868006800F48070F8B9C9
:1043E0000020E0852068C06820F480702168C860E3
:1043F0002068406920F00100216848612068406918
:1044000020F0400021684861202084F83E00206BA5
:10441000012805D12068C06820F010002168C8601C
:10442000206B012804D1A18D2046FEF7CDFB02E0D0
:104430002046FEF715FE70BD70B50546AC6B206BCF
:10444000012805D1A08D41082046FEF7BDFB02E002
:104450002046FEF706FE70BD70B50546AC6B2868B9
:10446000006800F4807070B90020E0842068406922
:1044700020F08000216848612068C06840F040005A
:104480002168C86002E02046FEF73AFE70BD70B5B4
:104490000446A56B2846FEF73FFE70BD0168C9685B
:1044A00021F490710268D1600168496921F001012D
:1044B00002685161016B012905D10168C96821F0C9
:1044C00010010268D160202180F83E1000210163B4
:1044D000704710B504462068C06820F0400021688D
:1044E000C860202084F83D002046FEF709FE002029
:1044F00010BD0168C96821F0C0010268D1602021A7
:1045000080F83D10704770B5044694F83E002228AC
:1045100056D1A068B0F5805F0CD1206950B9002554
:10452000A66A20684068C0F308003080A06A801C3A
:10453000A06215E0A56A0026A068B0F5805F03D0F0
:10454000A06828B9206918B920684068287004E07C
:104550002068406800F07F002870A06A401CA062BC
:10456000E08D401E80B2E08540BB2068C06820F02E
:1045700020002168C8602068C06820F4807021682D
:10458000C8602068406920F001002168486120204F
:1045900084F83E00206B01280AD12068C06820F012
:1045A00010002168C860A18D2046FEF70DFB02E0D7
:1045B0002046FEF755FD0020206370BD0020FCE77B
:1045C0000220FAE72DE9F84F04462068006920F43C
:1045D0004050E1680843216808612169A0680843E8
:1045E00061690843E169084300902068C06849F2A6
:1045F0000C618843009908432168C86020684069BD
:1046000020F44070A1690843216848617649206818
:10461000884203D075492068884203D1FDF7E2FA49
:10462000814602E0FDF7CEFA8146E069B0F5004F21
:104630006CD102206168A0FB015003461920A9FB40
:10464000007001462A463846FBF7C2FD6421B0FBE4
:10465000F1F04FEA001A02206168A0FB01510B46FD
:104660001920A9FB00712A463846FBF7B1FD8346A5
:1046700002206168A0FB015003461920A9FB0071CC
:104680002A463846FBF7A4FD6421B0FBF1F000EBAD
:10469000C00101EB0010ABEB8000322101EBC00048
:1046A0006421B0FBF1F000F0F8000AEB400A0220B0
:1046B0006168A0FB015003461920A9FB0070014668
:1046C0002A463846FBF784FD834602206168A0FB3A
:1046D000015003461920A9FB00712A463846FBF712
:1046E00077FD6421B0FBF1F000EBC00101EB00109D
:1046F000ABEB8000322101EBC0006421B0FBF1F094
:1047000000F007005044216888606AE00420616876
:10471000A0FB015003461920A9FB007001462A4660
:104720003846FBF755FD824604206168A0FB015026
:1047300003461920A9FB007001462A463846FBF7BC
:1047400047FD6421B0FBF1F000EBC00101EB00106C
:10475000AAEB8000322101EB00106421B0FBF1F0E4
:1047600000F0F00A04206168A0FB017003461920E4
:10477000A9FB00513A462846FBF72AFD6421B0FB0D
:10478000F1F00AEB001A04206168A0FB01510B460E
:104790001920A9FB00712A463846FBF719FD83460C
:1047A00004206168A0FB015003461920A9FB00709A
:1047B00001462A463846FBF70BFD6421B0FBF1F0B9
:1047C00000EBC00101EB0010ABEB8000322101EBEC
:1047D00000106421B0FBF1F000F00F00504421689C
:1047E0008860BDE8F88F000000100140001401400F
:1047F00077B581B0044615460298A062A5850020D1
:104800002064222084F83E001C48A16BC8631C4829
:10481000A16B08641B48A16BC8640020A16B0865EC
:1048200002AE32682368191D2B46A06BFCF7F0FD21
:1048300000BF002000902068006800902068406859
:10484000009000BF00BF00BF002084F83C0000BF04
:104850002068C06840F480702168C86020684069A2
:1048600040F00100216848612068406940F0400044
:1048700021684861002004B070BD0000D1430008E9
:104880003944000881430008014691F83D00212881
:1048900028D18868B0F5805F0BD1086948B90A6AE9
:1048A0001088C0F308000B685860086A801C086212
:1048B00005E00B6A581C086218780B685860C88CB1
:1048C000401E80B2C88458B90868C06820F08000D3
:1048D0000B68D8600868C06840F040000B68D8607A
:1048E000002070470220FCE710B50248FEF792F95D
:1048F00010BD0000A402002000BFFEE710B5024872
:10490000FEF738FC10BD0000840600200FB4084BF1
:1049100010B504A902AA039800F038F8044602A9C9
:10492000002000F0D4F9204610BC5DF814FB000014
:10493000CF4C000802480068C0F302207047000016
:104940000CED00E010B5002804DB0A07130E054A41
:10495000135406E00A07140E034A00F00F031B1F4E
:10496000D45410BD00E400E018ED00E002E008C8F7
:10497000121F08C1002AFAD170477047002001E0D9
:1049800001C1121F002AFBD1704700002DE9FF4F23
:104990008BB088460546002606E025280BD0DDE9C9
:1049A0000D1290476D1C761C28780028F5D10FB0A9
:1049B0003046BDE8F08F0024A146A2460122AE4950
:1049C00000E0044315F8013F203B02FA03F00842DF
:1049D000F7D128782A2810D06FF02F022878A0F17C
:1049E0003001092915D809EB890102EB410144F096
:1049F000020400EB01096D1CF0E758F8041B5FEAA4
:104A0000010903D544F40054C9F1000944F002043B
:104A10006D1C28782E2817D115F8010F44F00404D6
:104A20002A280ED06FF02F022878A0F13001092932
:104A30000AD80AEB8A0102EB410100EB010A6D1C66
:104A4000F2E758F804AB6D1C28786C280FD006DC10
:104A50004C2817D068280DD06A2814D104E0742897
:104A600010D07A280FD10DE044F400140AE044F489
:104A7000801401E044F440146978814202D104F5C5
:104A800080146D1C6D1C2878692865D006DC002810
:104A90008DD0632827D0642806D15DE06E2808D029
:104AA00073282AD0752877D0DDE90D129047761C3F
:104AB000E0E0C4F30250022809D003280DD0D8F852
:104AC000001004280DD00E6008F10408D2E0D8F8D8
:104AD0000010F217C1E90062F6E7D8F800100E8066
:104AE000F2E70E70F0E718F8041B8DF800100020B4
:104AF0008DF80100EB46012003E058F804BB4FF0AD
:104B0000FF3061074FF0000701D40AE07F1C5745D2
:104B10000DDA8742FADB1BF807100029F6D106E010
:104B20007F1C8742FCDB1BF807100029F8D1DDE968
:104B30000D23A9EB07008146214600F0B1F830446F
:104B4000C61904E0DDE90D121BF8010B90477F1E2A
:104B5000F8D22146484688E058F8040BC4F30251C5
:104B60004FF00A0B032900D100B2042900D140B252
:104B7000002802DA40422D2102E0210505D52B2133
:104B80008DF82410012104E006E0E10710D0202177
:104B9000F6E708AF089113E058F8040BC4F302518C
:104BA0004FF00A0B032900D180B2042900D1C0B212
:104BB0000021EEE75946FBF760FB303107F8011D95
:104BC0000028F7D1ADEB070000F1200B600702D5FC
:104BD00024F4803401E04FF0010ADA4502DDAAEB4B
:104BE0000B0000E00020824600EB0B010898014416
:104BF000A9EB01000A90E00306D4DDE90D2321466C
:104C00000A9800F04DF806444FF0000908E009A9A1
:104C100011F80900DDE90D12904709F10109761C30
:104C200008998945F3DBE0030CD5DDE90D23214626
:104C30000A9800F035F8064404E0DDE90D12302052
:104C40009047761CBAF10001AAF1010AF5DC05E0F3
:104C5000DDE90D1217F8010B9047761CBBF100013E
:104C6000ABF1010BF4DC0A982146DDE90D2300F0DD
:104C700005F806446D1C97E6092801002DE9F0416E
:104C8000044600251E461746880404D405E039462C
:104C90002020B0476D1C641EF9D52846BDE8F08180
:104CA0002DE9F041044600251E469046C80301D573
:104CB000302700E02027880404D505E04146384627
:104CC000B0476D1C641EF9D52846BDE8F0810A681E
:104CD000531C0B601070704700B585B000BF0020FA
:104CE00000901B48006840F480601949086008463D
:104CF000006800F48060009000BF00BF15481649AE
:104D000008604FF440304860002113480176C160CC
:104D100080F82010012180F8301041610021C1622B
:104D20000E4981620121C1610021416281600161FE
:104D3000FBF774FF052001900020049001200290F1
:104D40000220039001A90448FBF7CEFD05B000BD89
:104D50004438024000220140BC0500200100000F41
:104D600070B50025002400BF40E00025204600F07B
:104D70004DF8054605F0080080B11E48006818B1DE
:104D800020461C49096888471B4800EB0410007A3C
:104D900020F00800184901EB0411087205F010001A
:104DA00080B11648006818B1204614490968884740
:104DB000114800EB0410007A20F010000E4901EBBE
:104DC0000411087205F0020028B10B48007E20F0A3
:104DD00002010948017605F0040028B10648007E6A
:104DE00020F0040104480176601CC4B2032CBCDB33
:104DF00070BD0000340000208C0900203800002025
:104E000001490860704700000C00002070B504469E
:104E10000025204600F0BAFA0546012D32D1694836
:104E200000EB0410407A012826D1664800EB0410FC
:104E3000807A401C634901EB04118872614800EBE1
:104E40000410807A5F4901EB0411C97A884267DB5C
:104E500000205C4901EB041188725A4901EB0411EE
:104E60004872584800EB0410007A40F0020055499F
:104E700001EB0411087253E00020524901EB0411C8
:104E800088724DE04F4800EB0410407AB0BB4D48AB
:104E900000EB0410807A401C4A4901EB041188722F
:104EA000484800EB0410807A464901EB0411C97AA6
:104EB000884235DB0020434901EB04118872012050
:104EC000404901EB041148723E4800EB0410007A9F
:104ED00040F004003B4901EB04110872394800EB33
:104EE0000410007B58B90120364901EB0411087306
:104EF0000020344901EB0411487311E00BE0314804
:104F000000EB0410007B01280AD102202D4901EB9F
:104F10000411087304E000202A4901EB041188728F
:104F2000284800EB0410007B01282CD1254800EB19
:104F30000410407A01283FD1224800EB0410407B46
:104F4000401C204901EB041148731E4800EB04107B
:104F5000407B1C4901EB0411897B88422CDB00203B
:104F6000184901EB04110873164901EB0411487349
:104F7000144800EB0410007A40F00800114901EBDE
:104F80000411087218E00F4800EB0410007B02289F
:104F900012D100200B4901EB04110873094901EB00
:104FA00004114873074800EB0410007A40F0100029
:104FB000044901EB04110872024800EB0410007A66
:104FC00070BD00008C09002010B5044654B906A13C
:104FD0000948FFF79BFC0949087008460178064814
:104FE00000F0C8F910BD00004B4559305F436C69B3
:104FF000636B0D0A000000003C0000200700002049
:1050000001490860704700003400002010B50446D4
:10501000012C0AD105A10948FFF778FC084908705E
:1050200008460178054800F0A5F910BD4B455931F7
:105030005F445F436C69636B0D0A00003C00002015
:105040000700002001490860704700003800002078
:1050500008B500BF002000900C48006840F0100028
:105060000A4908600846006800F01000009000BF80
:1050700000BF0020064948601C20086001208860AD
:105080000220C8600348FCF70DFA08BD3038024022
:1050900058090020001002401348144908601020ED
:1050A00088800020C8710120087248720020887230
:1050B0000320C8720020087348731E2088730A48B2
:1050C00008610821094881820021C175012101760A
:1050D0004176002181760321C17600210177417755
:1050E0001E21817770470000001002408C090020CB
:1050F00000B587B000BF00BF0020019021480068C4
:1051000040F020001F4908600846006800F02000B9
:10511000019000BF00BF00BF00BF00BF0020019092
:105120000846006840F0200008600846006800F06B
:105130002000019000BF00BF00BF48150290012071
:10514000039004900220059002A90F48FCF7AAF9E9
:105150004FF48060029002A90B48FCF7A3F900BF4E
:1051600000224FF400710848FCF7B0FA00BF00BFFE
:1051700000224FF480610448FCF7A8FA00BF07B092
:1051800000BD000030380240001402400146C888CB
:105190000A89904204DBC8880A89801A80B2704765
:1051A00088880A89801ACA88104480B2F7E70160AB
:1051B00082800023C380038170470246501C82B264
:1051C0008A4201DB002070471046FCE730B50346F9
:1051D0000C4699881889FFF7F0FF05461889D98889
:1051E000884201D1002030BD19891868405C2070C8
:1051F0001D810120F7E730B503460C469988D88811
:10520000FFF7DBFF05461889A84201D1002030BD19
:10521000D98818684454DD800120F8E7F0B50746C6
:105220000D461646002400BF07E0295D3846FFF70B
:10523000E2FF00B903E0601C84B2B442F5DB00BFBA
:105240002046F0BD88B020221E496846FAF7F1FFDB
:1052500000BF00BF00BF00BFFCF74AFB07230222CC
:1052600008214FF4A87000F0AFF8A820FFF7C8FDA0
:10527000FFF73EFF00F058F800F0D4F9FFF72CFDDF
:10528000FEF7EEFFFEF786FEFFF7E2FEFFF704FFF4
:1052900064210D48FFF71CF864210C48FFF718F84B
:1052A00001210B48FFF714F80A48FFF7A9FE0A4846
:1052B000FFF7C8FE05E000F011F8FEF749FEFBF726
:1052C000DFF9F8E778560008A13F0008E10600087A
:1052D000614D0008C94F00080D50000870B500F07E
:1052E0002BF805460D4805808DB101200C4908704A
:1052F000002405E00B49081900F032F8601C84B264
:10530000AC42F7DB05480188064800F033F800207E
:10531000034908700149088070BD00001A00002090
:105320001C0000200406002010B500F00DF84FF41A
:10533000165000F03FF910BD00B50248FFF726FFF8
:1053400000BD0000A803002000B5802202490348E8
:10535000FFF72DFF00BD0000B4030020A8030020CC
:1053600010B5044621460248FFF730FF10BD00008B
:10537000A803002070B504460D462A46214602487F
:10538000FDF770FE70BD0000A402002070B5044659
:105390000C4A02EB041291880A4A02EB04121068CC
:1053A000FCF782F90546074800EB0410C07920B9E4
:1053B0000DB9012070BD0020FCE70DB90020F9E710
:1053C0000120F7E78C0900202DE9F04192B08046DA
:1053D0000C4615461E460027302106A8FAF742FF64
:1053E000142101A8FAF73EFF00BF002000902A48D0
:1053F000006840F08050284908600846006800F0C6
:105400008050009000BF00BF00BF002000902348E4
:10541000006840F48040214908600846006800F4B4
:105420008040009000BF00BF01200690000407905C
:1054300002200C9041050D91CDF83C800E94109502
:10544000119606A8FCF736FC07461FB1012012B0E2
:10545000BDE8F0810F20019002200290002003900F
:105460004FF4A05004904FF480500590052101A8FE
:10547000FCF7E0FA07460FB10120E8E7FCF72CF94A
:1054800041F20101884205D10548006840F480706E
:10549000034908600020DAE740380240007000400D
:1054A000003C024008B500BF00200090184800688A
:1054B00040F48030164908600846006800F48030E7
:1054C000009000BF00BF1348134908600021124834
:1054D0008161016181604FF6FF71C160A7200E49B3
:1054E00048600846FDF74EF86FF001000A49096868
:1054F000086100200949C8600A200860002088600F
:105500000120486000220448FCF7D2FF08BD0000DB
:10551000443802400040014078070020C0070020C6
:1055200000B587B000BF002001900E48006840F031
:1055300010000C4908600846006800F01000019057
:1055400000BF00BF0320069002200390202002909D
:10555000012004900220059002A90348FBF7A2FF56
:1055600007B000BD303802400010024000B587B0DF
:1055700000BF002001900D48006840F010000B496A
:1055800008600846006800F01000019000BF00BFEE
:105590001120039001200490022005902020029009
:1055A00002A90348FBF77EFF07B000BD3038024078
:1055B0000010024038B5044600BF00200090154896
:1055C000006840F01000134908600846006800F0C9
:1055D0001000009000BF00BF0F4810490860084647
:1055E00044600C21416100210161C16081608161E1
:1055F000FDF738FC80220A490848FDF7ABFA074856
:10560000806B0068006820F008000449896B096815
:10561000086038BD4438024000100140A402002058
:105620003404002008B500BF002000900F48006837
:1056300040F400600D4908600846006800F400600E
:10564000009000BF00BF0A480A4908607F2109484E
:10565000C1604FF4007101614FF4C07005494860AA
:10566000502104488160FDF799FD08BD4038024093
:10567000002C0040840600206E6968616F612C7305
:1056800068696A696521212121210000000000006C
:105690000000000000000000000000000000010207
:1056A00003040607080900000000010203040006C5
:1056B0001016000610160000D85600080000002042
:1056C0003C0000006C490008145700083C00002012
:1056D000840D00007C49000800000000000A000062
:1056E0000024F40000000000000000001000000092
:1056F00001000000000000000000000000000000A9
:105700000000000000000000000000000000000099
:045710000000000095
:040000050800018965
:00000001FF
